{
    "_format": "hh-sol-artifact-1",
    "contractName": "BuySudeepADrink",
    "sourceName": "contracts/BuySudeepADrink.sol",
    "abi": [
        {
            "inputs": [],
            "stateMutability": "nonpayable",
            "type": "constructor"
        },
        {
            "anonymous": false,
            "inputs": [
                {
                    "indexed": true,
                    "internalType": "address",
                    "name": "from",
                    "type": "address"
                },
                {
                    "indexed": false,
                    "internalType": "uint256",
                    "name": "timestamp",
                    "type": "uint256"
                },
                {
                    "indexed": false,
                    "internalType": "string",
                    "name": "name",
                    "type": "string"
                },
                {
                    "indexed": false,
                    "internalType": "string",
                    "name": "message",
                    "type": "string"
                }
            ],
            "name": "NewMemo",
            "type": "event"
        },
        {
            "inputs": [
                {
                    "internalType": "string",
                    "name": "_name",
                    "type": "string"
                },
                {
                    "internalType": "string",
                    "name": "_message",
                    "type": "string"
                }
            ],
            "name": "buyADrink",
            "outputs": [
                {
                    "internalType": "string",
                    "name": "",
                    "type": "string"
                }
            ],
            "stateMutability": "payable",
            "type": "function"
        },
        {
            "inputs": [],
            "name": "memes",
            "outputs": [
                {
                    "components": [
                        {
                            "internalType": "address",
                            "name": "from",
                            "type": "address"
                        },
                        {
                            "internalType": "uint256",
                            "name": "timestamp",
                            "type": "uint256"
                        },
                        {
                            "internalType": "string",
                            "name": "name",
                            "type": "string"
                        },
                        {
                            "internalType": "string",
                            "name": "message",
                            "type": "string"
                        }
                    ],
                    "internalType": "struct BuySudeepADrink.Memo[]",
                    "name": "",
                    "type": "tuple[]"
                }
            ],
            "stateMutability": "view",
            "type": "function"
        },
        {
            "inputs": [],
            "name": "withDraw",
            "outputs": [],
            "stateMutability": "payable",
            "type": "function"
        }
    ],
    "bytecode": "0x608060405234801561001057600080fd5b50336000806101000a81548173ffffffffffffffffffffffffffffffffffffffff021916908373ffffffffffffffffffffffffffffffffffffffff160217905550610d66806100606000396000f3fe6080604052600436106100345760003560e01c80630fdb1c1014610039578063831b79d414610043578063ebb90edc14610073575b600080fd5b61004161009e565b005b61005d60048036038101906100589190610635565b61015f565b60405161006a919061072c565b60405180910390f35b34801561007f57600080fd5b506100886102f8565b604051610095919061091e565b60405180910390f35b60008054906101000a900473ffffffffffffffffffffffffffffffffffffffff1673ffffffffffffffffffffffffffffffffffffffff163373ffffffffffffffffffffffffffffffffffffffff16146100f657600080fd5b60008054906101000a900473ffffffffffffffffffffffffffffffffffffffff1673ffffffffffffffffffffffffffffffffffffffff166108fc479081150290604051600060405180830381858888f1935050505015801561015c573d6000803e3d6000fd5b50565b6060600034116101a4576040517f08c379a000000000000000000000000000000000000000000000000000000000815260040161019b906109b2565b60405180910390fd5b600160405180608001604052803373ffffffffffffffffffffffffffffffffffffffff16815260200142815260200185815260200184815250908060018154018082558091505060019003906000526020600020906004020160009091909190915060008201518160000160006101000a81548173ffffffffffffffffffffffffffffffffffffffff021916908373ffffffffffffffffffffffffffffffffffffffff16021790555060208201518160010155604082015181600201908161026c9190610bde565b5060608201518160030190816102829190610bde565b5050503373ffffffffffffffffffffffffffffffffffffffff167fc56140e05f516509ae28110e0f72e17558a7561630dad2647c3ae87d986e365c4285856040516102cf93929190610cbf565b60405180910390a26040518060600160405280602c8152602001610d05602c9139905092915050565b60606001805480602002602001604051908101604052809291908181526020016000905b828210156104d257838290600052602060002090600402016040518060800160405290816000820160009054906101000a900473ffffffffffffffffffffffffffffffffffffffff1673ffffffffffffffffffffffffffffffffffffffff1673ffffffffffffffffffffffffffffffffffffffff168152602001600182015481526020016002820180546103af90610a01565b80601f01602080910402602001604051908101604052809291908181526020018280546103db90610a01565b80156104285780601f106103fd57610100808354040283529160200191610428565b820191906000526020600020905b81548152906001019060200180831161040b57829003601f168201915b5050505050815260200160038201805461044190610a01565b80601f016020809104026020016040519081016040528092919081815260200182805461046d90610a01565b80156104ba5780601f1061048f576101008083540402835291602001916104ba565b820191906000526020600020905b81548152906001019060200180831161049d57829003601f168201915b5050505050815250508152602001906001019061031c565b50505050905090565b6000604051905090565b600080fd5b600080fd5b600080fd5b600080fd5b6000601f19601f8301169050919050565b7f4e487b7100000000000000000000000000000000000000000000000000000000600052604160045260246000fd5b610542826104f9565b810181811067ffffffffffffffff821117156105615761056061050a565b5b80604052505050565b60006105746104db565b90506105808282610539565b919050565b600067ffffffffffffffff8211156105a05761059f61050a565b5b6105a9826104f9565b9050602081019050919050565b82818337600083830152505050565b60006105d86105d384610585565b61056a565b9050828152602081018484840111156105f4576105f36104f4565b5b6105ff8482856105b6565b509392505050565b600082601f83011261061c5761061b6104ef565b5b813561062c8482602086016105c5565b91505092915050565b6000806040838503121561064c5761064b6104e5565b5b600083013567ffffffffffffffff81111561066a576106696104ea565b5b61067685828601610607565b925050602083013567ffffffffffffffff811115610697576106966104ea565b5b6106a385828601610607565b9150509250929050565b600081519050919050565b600082825260208201905092915050565b60005b838110156106e75780820151818401526020810190506106cc565b60008484015250505050565b60006106fe826106ad565b61070881856106b8565b93506107188185602086016106c9565b610721816104f9565b840191505092915050565b6000602082019050818103600083015261074681846106f3565b905092915050565b600081519050919050565b600082825260208201905092915050565b6000819050602082019050919050565b600073ffffffffffffffffffffffffffffffffffffffff82169050919050565b60006107a58261077a565b9050919050565b6107b58161079a565b82525050565b6000819050919050565b6107ce816107bb565b82525050565b600082825260208201905092915050565b60006107f0826106ad565b6107fa81856107d4565b935061080a8185602086016106c9565b610813816104f9565b840191505092915050565b600060808301600083015161083660008601826107ac565b50602083015161084960208601826107c5565b506040830151848203604086015261086182826107e5565b9150506060830151848203606086015261087b82826107e5565b9150508091505092915050565b6000610894838361081e565b905092915050565b6000602082019050919050565b60006108b48261074e565b6108be8185610759565b9350836020820285016108d08561076a565b8060005b8581101561090c57848403895281516108ed8582610888565b94506108f88361089c565b925060208a019950506001810190506108d4565b50829750879550505050505092915050565b6000602082019050818103600083015261093881846108a9565b905092915050565b7f536f7272792042756464792043616e2774204275792041204472696e6b20776960008201527f7468203020457468000000000000000000000000000000000000000000000000602082015250565b600061099c6028836106b8565b91506109a782610940565b604082019050919050565b600060208201905081810360008301526109cb8161098f565b9050919050565b7f4e487b7100000000000000000000000000000000000000000000000000000000600052602260045260246000fd5b60006002820490506001821680610a1957607f821691505b602082108103610a2c57610a2b6109d2565b5b50919050565b60008190508160005260206000209050919050565b60006020601f8301049050919050565b600082821b905092915050565b600060088302610a947fffffffffffffffffffffffffffffffffffffffffffffffffffffffffffffffff82610a57565b610a9e8683610a57565b95508019841693508086168417925050509392505050565b6000819050919050565b6000610adb610ad6610ad1846107bb565b610ab6565b6107bb565b9050919050565b6000819050919050565b610af583610ac0565b610b09610b0182610ae2565b848454610a64565b825550505050565b600090565b610b1e610b11565b610b29818484610aec565b505050565b5b81811015610b4d57610b42600082610b16565b600181019050610b2f565b5050565b601f821115610b9257610b6381610a32565b610b6c84610a47565b81016020851015610b7b578190505b610b8f610b8785610a47565b830182610b2e565b50505b505050565b600082821c905092915050565b6000610bb560001984600802610b97565b1980831691505092915050565b6000610bce8383610ba4565b9150826002028217905092915050565b610be7826106ad565b67ffffffffffffffff811115610c0057610bff61050a565b5b610c0a8254610a01565b610c15828285610b51565b600060209050601f831160018114610c485760008415610c36578287015190505b610c408582610bc2565b865550610ca8565b601f198416610c5686610a32565b60005b82811015610c7e57848901518255600182019150602085019450602081019050610c59565b86831015610c9b5784890151610c97601f891682610ba4565b8355505b6001600288020188555050505b505050505050565b610cb9816107bb565b82525050565b6000606082019050610cd46000830186610cb0565b8181036020830152610ce681856106f3565b90508181036040830152610cfa81846106f3565b905094935050505056fe5468616e6b20796f7520736f206d7563682c206920616d2061626c6520746f20627579206120636f66666565a26469706673582212207aceca3a396924f53126c55883312ca519b77e29610bf847cd23e307f64adbbd64736f6c63430008110033",
    "linkReferences": {},
    "deployedLinkReferences": {}
}